:02000000C32813
:0E0006008312031321088A00200882000800DC
:10001400831203132208F0002308F100F00DF10D00
:1000240070107008A2007108A30070088600051003
:100034000330FB008A30FC005530FD00FD0B202806
:10004400FC0B2028FB0B2028000000008030230636
:10005400F0008030013A7002031D32280030220281
:10006400031C47280130A2000030A300051403300C
:10007400FB008A30FC005530FD00FD0B3F28FC0BD3
:0C0084003F28FB0B3F2800000000080094
:10009000033083120313FB008A30FC005530FD004F
:1000A000FD0B5028FC0B5028FB0B502800000000D3
:1000B000A801A90100302906031D60280130280687
:1000C0000319B6282208F0002308F100F00DF10D05
:1000D00070107008A2007108A30070088600051057
:1000E00000302506031D762800302406031D8628CF
:1000F0000230FB004530FC00A930FD00FD0B7E28DE
:10010000FC0B7E28FB0B7E280000000080302306BD
:10011000F0008030013A7002031D90280030220266
:10012000031CAD280130A2000030A30005140030EC
:100130002506031D9D2800302406031DAD2802302E
:10014000FB004530FC00A930FD00FD0BA528FC0B91
:10015000A528FB0BA528000000000618B528A6015D
:0E016000A7010130A8000030A9005A280800AD
:10016E0003208A110A128000840AA00A0319A10A28
:08017E00F003031DB72808007F
:100186000230831603138500C830831285000130C0
:10019600831686008312860183168E150730831216
:1001A6009F000030A2000130A30005110330FB00C0
:1001B6008A30FC005530FD00FD0BDF28FC0BDF28E4
:1001C600FB0BDF2800000000051506183E298511E7
:1001D600A601A7010330FB008A30FC005530FD0064
:1001E600FD0BF328FC0BF328FB0BF32800000000A3
:1001F60006180F290513A60A0319A70A0330FB00E0
:100206008A30FC005530FD00FD0B0729FC0B072941
:10021600FB0B072900000000061823298513A60AF0
:100226000319A70A0330FB008A30FC005530FD0095
:10023600FD0B1B29FC0B1B29FB0B1B2900000000D7
:1002460080302706F00080307002031D2C29033011
:100256002602031C3E29A601A7010330FB008A30B3
:10026600FC005530FD00FD0B3629FC0B3629FB0B37
:1002760036290000000058298511051785170A2020
:10028600FF30A600FF30A7007029851505138517D6
:10029600A401A5014820702985150517851301308D
:1002A600A4000030A5004820702900302706031D51
:1002B6005E290030260603193F2900302706031D54
:1002C6006629013026060319482900302706031D32
:0E02D6006E290230260603194F29E8287129E7
:02400E00182177
:00000001FF
